:020000040800F2
:100000007006002039020008770200087902000813
:100010007B0200087D0200087F020008000000004B
:100020000000000000000000000000008102000845
:100030008302000800000000850200088702000813
:100040008902000889020008890200088902000864
:100050008902000889020008890200088902000854
:100060008902000889020008890200088902000844
:100070008902000889020008890200088902000834
:100080008902000889020008890200088902000824
:100090008902000889020008890200088902000814
:1000A0008902000889020008890200088902000804
:1000B00089020008890200086D040008890200080E
:1000C00089020008890200088902000889020008E4
:1000D00089020008890200088902000889020008D4
:1000E00089020008890200088902000889020008C4
:1000F00089020008890200088902000889020008B4
:1001000089020008890200088902000889020008A3
:100110008902000889020008890200088902000893
:100120008902000889020008890200088902000883
:100130008902000889020008890200088902000873
:100140008902000889020008890200088902000863
:100150008902000889020008890200088902000853
:100160008902000889020008890200088902000843
:1001700089020008890200088902000800000000C6
:10018000890200088902000800F002F800F044F833
:1001900014A696E8000CB244B344DA4501D100F04D
:1001A0003BF8BAE80F000FA696E83000A5EB04056F
:1001B00004EB0607AAEB0704A7F101074FEA1515A0
:1001C0004FEA3414A4F10104AC4201D300F024F846
:1001D00013F0010F18BFFB1A43F0010300F001F800
:1001E000DBE71847B0050000C005000070470000BD
:1001F0000023002400250026103A28BF78C1FBD830
:10020000520728BF30C148BF0B6070471FB500F0D0
:10021000B3FA1FBD10B510BD00F057F81146FFF737
:10022000F5FF00F075FA00F075F803B4FFF7F2FF80
:1002300003BC00F07DF8000017481849184B99429C
:100240003CBF50F8042B41F8042BF8D3154B16494A
:100250004FF000028B4238BF43F8042BFAD3DFF88B
:100260004C00016841F470010160BFF34F8FBFF390
:100270006F8F0F480047FEE7FEE7FEE7FEE7FEE769
:10028000FEE7FEE7FEE7FEE7FEE7000009480A4951
:100290000A4A0B4B70470000A4070008000000202A
:1002A00000000020000000207006002088ED00E023
:1002B00089010008700000207006002070020020F4
:1002C00070020020704770477047754600F02CF8A8
:1002D000AE4605006946534620F00700854618B033
:1002E00020B5FFF7D3FFBDE820404FF000064FF0E8
:1002F00000074FF000084FF0000BAC46ACE8C00917
:10030000ACE8C009ACE8C009ACE8C00921F00701BD
:100310008D46704710B50446AFF300802046BDE817
:100320001040FFF782BF0000004870470000002027
:1003300001491820ABBEFEE726000200704700000E
:1003400080B582B041F24C01C4F20201086840F06D
:100350000200086040F20041C4F60001086820F481
:1003600080500860086840F40050086040F20C417A
:10037000C4F60001086820F44050086040F22041B3
:10038000C4F60001086820F070600860086840F05A
:100390000070086041F25801C4F20201086840F0A0
:1003A0000400086040F62801C4F200010F20086034
:1003B00040F60001C4F20001086840F080000860C7
:1003C00040F62C02C4F200024FF6FF70106040F6B7
:1003D0001802C4F20002106820F0030010601068D8
:1003E00040F00100106040F62002C4F200021068E4
:1003F00040F00A001060106840F00100106040F604
:100400000C02C4F20002106840F002001060106894
:1004100040F400701060106840F00100106040F679
:100420001402C4F20002106840F00100106040F6AF
:100430001002C4F20002106820F001001060086889
:1004400020F010000860086820F06000086008686C
:1004500040F0010008601E20019000F01FF9019893
:10046000022100F033F902B080BD000042F61040D6
:10047000C4F201000068C00798B1FFE742F61041DE
:10048000C4F20101086820F00100086040F6340061
:10049000C4F20000006840F26801C2F20001086086
:1004A0004FE040F63400C4F20000006840F26C01F6
:1004B000C2F20001086040F61000C4F200000068BB
:1004C000C007D8B1FFE740F61001C4F20001086888
:1004D00020F00100086040F26C00C2F200000068E9
:1004E00040F26801C2F200010968401A00F580304C
:1004F00040F26001C2F20001086010E040F26C00BE
:10050000C2F20000006840F26801C2F2000109680E
:10051000401A40F26001C2F200010860FFE740F2B9
:100520006000C2F2000000684CF60931C8F63D5187
:10053000A0FB0110400940F26401C2F20001086012
:10054000FFE7704741F24C01C4F20201086840F035
:10055000010008604FF09041086820F48020086096
:10056000086840F4002008600421C4F6000108680F
:1005700020F4007008600C21C4F60001086820F423
:10058000402008600821C4F60001086840F44020BB
:1005900008602421C4F60001086820F0F00008601B
:1005A000086840F0100008601421C4F600010868D3
:1005B00020F40070086042F60041C4F201010868AE
:1005C00020F00100086041F26002C4F202021068EB
:1005D00040F40060106042F62842C4F201020F208D
:1005E000106042F62C42C4F201024FF6FF70106018
:1005F00042F61842C4F20102106848F6FF73CFF6C3
:10060000FF6318401060106840F4C040106010682C
:1006100040F400601060086840F08000086042F616
:100620002042C4F20102106820F00200106010683D
:1006300040F01000106042F63842C4F201020A2075
:10064000106042F64442C4F20102106840F40C40CB
:10065000106042F61442C4F20102106840F001003A
:10066000106042F60C42C4F20102106840F0010032
:10067000106042F61042C4F20102106820F001003E
:100680001060086820F010000860086820F0600022
:100690000860086840F001000860704781B08DF87C
:1006A00003009DF9030000280ED4FFE79DF9031015
:1006B00001F01F02012090404A094EF20011CEF2D3
:1006C000000141F82200FFE701B0704782B08DF8C9
:1006D000070000919DF9070000280AD4FFE7009861
:1006E00000019DF907104EF20042CEF2000288543C
:1006F0000BE0009800019DF8071001F00F014EF685
:100700001452CEF200028854FFE702B07047000096
:1007100080B582B00020019041F20001C4F20201D4
:10072000086840F480700860FFE741F20000C4F2FE
:10073000020000684005002801D4FFE7F5E741F218
:100740000801C4F20201086820F00300086008688C
:1007500040F001000860FFE741F20800C4F2020027
:10076000006810F00C0F01D1FFE7F5E7FFF7E8FD97
:10077000FFF7E8FEFFE7FEE7F1EE100A4FF6FF7124
:10078000C0F2C03120EA010040F04070E1EE100AF2
:1007900070470000A4070008000000207006000059
:0407A000F00100085C
:040000050800018965
:00000001FF
