:020000040800F2
:100000006006002039020008770200087902000823
:100010007B0200087D0200087F020008000000004B
:100020000000000000000000000000008102000845
:100030008302000800000000850200088702000813
:100040008902000889020008890200088902000864
:100050008902000889020008890200088902000854
:100060008902000889020008890200088902000844
:100070008902000889020008890200088902000834
:100080008902000889020008890200088902000824
:100090008902000889020008890200088902000814
:1000A0008902000889020008890200088902000804
:1000B00089020008890200088902000889020008F4
:1000C00089020008890200088902000889020008E4
:1000D00089020008890200088902000889020008D4
:1000E00089020008890200088902000889020008C4
:1000F00089020008890200088902000889020008B4
:1001000089020008890200088902000889020008A3
:100110008902000889020008890200088902000893
:100120008902000889020008890200088902000883
:100130008902000889020008890200088902000873
:100140008902000889020008890200088902000863
:100150008902000889020008890200088902000853
:100160008902000889020008890200088902000843
:1001700089020008890200088902000800000000C6
:10018000890200088902000800F002F800F044F833
:1001900014A696E8000CB244B344DA4501D100F04D
:1001A0003BF8BAE80F000FA696E83000A5EB04056F
:1001B00004EB0607AAEB0704A7F101074FEA1515A0
:1001C0004FEA3414A4F10104AC4201D300F024F846
:1001D00013F0010F18BFFB1A43F0010300F001F800
:1001E000DBE7184754040000640400007047000077
:1001F0000023002400250026103A28BF78C1FBD830
:10020000520728BF30C148BF0B6070471FB500F0D0
:1002100005FA1FBD10B510BD00F057F81146FFF7E5
:10022000F5FF00F09FF900F075F803B4FFF7F2FF57
:1002300003BC00F07DF8000017481849184B99429C
:100240003CBF50F8042B41F8042BF8D3154B16494A
:100250004FF000028B4238BF43F8042BFAD3DFF88B
:100260004C00016841F470010160BFF34F8FBFF390
:100270006F8F0F480047FEE7FEE7FEE7FEE7FEE769
:10028000FEE7FEE7FEE7FEE7FEE7000009480A4951
:100290000A4A0B4B70470000480600080000002087
:1002A00000000020000000206006002088ED00E033
:1002B0008901000860000020600600206002002024
:1002C00060020020704770477047754600F02CF8B8
:1002D000AE4605006946534620F00700854618B033
:1002E00020B5FFF7D3FFBDE820404FF000064FF0E8
:1002F00000074FF000084FF0000BAC46ACE8C00917
:10030000ACE8C009ACE8C009ACE8C00921F00701BD
:100310008D46704710B50446AFF300802046BDE817
:100320001040FFF782BF0000004870470000002027
:1003300001491820ABBEFEE726000200704700000E
:1003400080B582B040F61401C4F60001009108683F
:1003500020F040000860086840F02000086008684D
:1003600040F4007008600120019000F0E7F8009A66
:100370000198116821F400711160116841F48071D5
:10038000116000F0DBF8009A0198116821F020015B
:100390001160116841F04001116000F0CFF8009A3F
:1003A0000198116821F480711160116841F40071A5
:1003B000116000F0C3F802B080BD000041F20001FE
:1003C000C4F20201086840F480700860FFE741F25F
:1003D0000000C4F2020000684005002801D4FFE7D5
:1003E000F5E741F20801C4F20201086820F00300B9
:1003F0000860086840F001000860FFE741F208006B
:10040000C4F20200006810F00C0F01D1FFE7F5E71D
:1004100041F24C01C4F20201086840F00400086097
:1004200040F60001C4F60001086841F20042C0F243
:1004300005021043086008684DF2FF72CFF6F572AE
:100440001040086040F60801C4F6000108684EF646
:10045000FF32CFF6FA7210400860086842F60002D8
:10046000C0F20A021043086040F60401C4F600011D
:10047000086820F45870086040F60C01C4F60001CA
:1004800008684CF2FF32CFF6F0721040086040F678
:100490001401C4F60001086820F458700860704721
:1004A00080B582B040F61401C4F6000100910868DE
:1004B00020F0200008600120019000F03FF8009A31
:1004C0000198116841F48071116000F037F8009ACA
:1004D0000198116821F40071116000F02FF8009A62
:1004E0000198116841F02001116000F027F8009A8E
:1004F0000198116821F04001116000F01FF8009A86
:100500000198116841F40071116000F017F8009A29
:100510000198116821F48071116000F00FF8009AC1
:100520000198116841F040011160116841F4807137
:10053000116000F003F802B080BD000082B00190AD
:1005400000200090FFE70098019940F6AC5251431B
:10055000884205D2FFE7FFE7009801300090F2E7FC
:1005600002B0704780B584B000200390FFF726FFEB
:10057000FFE70120FFF7E2FF4FF4B470ADF80A0087
:10058000BDF80A0040F66131C0F2B601A0FB0110CF
:100590004002ADF808000020ADF80600FFE7BDF806
:1005A0000600BDF80810884209DAFFE7FFF7C8FE29
:1005B000FFE7BDF806000130ADF80600EFE70120C7
:1005C0000090FFF7BBFF009840F61402C4F600024B
:1005D000116821F458711160FFF7B0FF0020ADF8E9
:1005E0000400FFE7BDF80400BDF80810884209DAEE
:1005F000FFE7FFF755FFFFE7BDF804000130ADF856
:100600000400EFE70120FFF799FF40F61401C4F65C
:100610000001086820F458700860AAE7F1EE100A9B
:100620004FF6FF71C0F2C03120EA010040F0407087
:10063000E1EE100A704700004806000800000020A4
:0806400060060000F001000853
:040000050800018965
:00000001FF
