:020000040800F2
:100000006006002039020008770200087902000823
:100010007B0200087D0200087F020008000000004B
:100020000000000000000000000000008102000845
:100030008302000800000000850200088702000813
:100040008902000889020008890200088902000864
:100050008902000889020008890200088902000854
:100060008902000889020008890200088902000844
:100070008902000889020008890200088902000834
:100080008902000889020008890200088902000824
:100090008902000889020008890200088902000814
:1000A0008902000889020008890200088902000804
:1000B00089020008890200088902000889020008F4
:1000C00089020008890200088902000889020008E4
:1000D00089020008890200088902000889020008D4
:1000E000410300088902000889020008890200080B
:1000F00089020008890200088902000889020008B4
:1001000089020008890200088902000889020008A3
:100110008902000889020008890200088902000893
:100120008902000889020008890200088902000883
:100130008902000889020008890200088902000873
:100140008902000889020008890200088902000863
:100150008902000889020008890200088902000853
:100160008902000889020008890200088902000843
:1001700089020008890200088902000800000000C6
:10018000890200088902000800F002F800F044F833
:1001900014A696E8000CB244B344DA4501D100F04D
:1001A0003BF8BAE80F000FA696E83000A5EB04056F
:1001B00004EB0607AAEB0704A7F101074FEA1515A0
:1001C0004FEA3414A4F10104AC4201D300F024F846
:1001D00013F0010F18BFFB1A43F0010300F001F800
:1001E000DBE718478C0300009C0300007047000009
:1001F0000023002400250026103A28BF78C1FBD830
:10020000520728BF30C148BF0B6070471FB500F0D0
:10021000A1F91FBD10B510BD00F057F81146FFF74A
:10022000F5FF00F08BF900F075F803B4FFF7F2FF6B
:1002300003BC00F07DF8000017481849184B99429C
:100240003CBF50F8042B41F8042BF8D3154B16494A
:100250004FF000028B4238BF43F8042BFAD3DFF88B
:100260004C00016841F470010160BFF34F8FBFF390
:100270006F8F0F480047FEE7FEE7FEE7FEE7FEE769
:10028000FEE7FEE7FEE7FEE7FEE7000009480A4951
:100290000A4A0B4B70470000800500080000002050
:1002A00000000020000000206006002088ED00E033
:1002B0008901000860000020600600206002002024
:1002C00060020020704770477047754600F02CF8B8
:1002D000AE4605006946534620F00700854618B033
:1002E00020B5FFF7D3FFBDE820404FF000064FF0E8
:1002F00000074FF000084FF0000BAC46ACE8C00917
:10030000ACE8C009ACE8C009ACE8C00921F00701BD
:100310008D46704710B50446AFF300802046BDE817
:100320001040FFF782BF0000004870470000002027
:1003300001491820ABBEFEE726000200704700000E
:1003400080B540F21441C4F20101086840F4005045
:10035000086000F059F880BD80B582B041F24C01D0
:10036000C4F20201086840F00400086040F6000191
:10037000C4F60001086820F080600860086820F07A
:100380000060086040F60C01C4F60001086820F027
:1003900080600860086820F00060086041F2600139
:1003A000C4F20201086840F0010008601421C4F2A0
:1003B0000101086820F070000860086840F0200023
:1003C000086040F20841C4F20101086820F40050BE
:1003D000086040F20C41C4F20101086840F400508A
:1003E000086040F20041C4F20101086840F4005086
:1003F00008602820019000F067F80198002100F0C3
:100400007BF802B080BD00001421C4F6000108682A
:1004100080F020000860704741F24C01C4F20201F4
:10042000086840F0010008604FF09041086840F40F
:1004300080600860086820F4006008600421C4F649
:100440000001086820F0200008600C21C4F60001BB
:10045000086820F480600860086820F40060086084
:100460001421C4F60001086820F0200008607047DD
:1004700041F20001C4F20201086840F48070086093
:10048000FFE741F20000C4F20200006840050028C6
:1004900001D4FFE7F5E741F20801C4F20201086860
:1004A00020F003000860086840F001000860FFE7E2
:1004B00041F20800C4F20200006810F00C0F01D1F4
:1004C000FFE7F5E77047000081B08DF803009DF964
:1004D000030000280ED4FFE79DF9031001F01F026E
:1004E000012090404A094EF20011CEF2000141F87D
:1004F0002200FFE701B0704782B08DF8070000913D
:100500009DF9070000280AD4FFE7009800019DF933
:1005100007104EF20042CEF2000288540BE0009821
:1005200000019DF8071001F00F014EF61452CEF2B3
:1005300000028854FFE702B07047000080B582B027
:1005400000200190FFF794FFFFF766FFFFF704FF1D
:10055000FFE7FEE7F1EE100A4FF6FF71C0F2C0317F
:1005600020EA010040F04070E1EE100A7047000000
:10057000800500080000002060060000F00100086F
:040000050800018965
:00000001FF
