:020000040800F2
:10000000680600203902000877020008790200081B
:100010007B0200087D0200087F020008000000004B
:100020000000000000000000000000008102000845
:100030008302000800000000850200088702000813
:100040008902000889020008890200088902000864
:100050008902000889020008890200088902000854
:100060008902000889020008890200088902000844
:100070008902000889020008890200088902000834
:100080008902000889020008890200088902000824
:100090008902000889020008890200088902000814
:1000A0008902000889020008890200088902000804
:1000B00089020008890200088902000889020008F4
:1000C00089020008890200088902000889020008E4
:1000D00089020008890200088902000889020008D4
:1000E00089020008890200088902000889020008C4
:1000F00089020008890200088902000889020008B4
:1001000089020008890200088902000889020008A3
:100110008902000889020008890200088902000893
:100120008902000889020008890200088902000883
:100130008902000889020008890200088902000873
:100140008902000889020008890200088902000863
:100150008902000889020008890200088902000853
:100160008902000889020008890200088902000843
:1001700089020008890200088902000800000000C6
:10018000890200088902000800F002F800F044F833
:1001900014A696E8000CB244B344DA4501D100F04D
:1001A0003BF8BAE80F000FA696E83000A5EB04056F
:1001B00004EB0607AAEB0704A7F101074FEA1515A0
:1001C0004FEA3414A4F10104AC4201D300F024F846
:1001D00013F0010F18BFFB1A43F0010300F001F800
:1001E000DBE71847BC140000CC1400007047000087
:1001F0000023002400250026103A28BF78C1FBD830
:10020000520728BF30C148BF0B6070471FB501F0CF
:100210000DFA1FBD10B510BD00F06AF81146FFF7CA
:10022000F5FF00F019FA00F088F803B4FFF7F2FFC9
:1002300003BC00F08BF8000017481849184B99428E
:100240003CBF50F8042B41F8042BF8D3154B16494A
:100250004FF000028B4238BF43F8042BFAD3DFF88B
:100260004C00016841F470010160BFF34F8FBFF390
:100270006F8F0F480047FEE7FEE7FEE7FEE7FEE769
:10028000FEE7FEE7FEE7FEE7FEE7000009480A4951
:100290000A4A0B4B70470000B0160008000000200F
:1002A00000000020000000206806002088ED00E02B
:1002B000890100086800002068060020680200200C
:1002C0006802002070477047704710B500F008F8CA
:1002D000006810BD10B5044600F002F8046010BDBF
:1002E00000487047000000200048704700000020D0
:1002F0007546FFF7F9FFAE4605006946534620F004
:100300000700854618B020B5FFF7C0FFBDE82040C4
:100310004FF000064FF000074FF000084FF0000BC1
:10032000AC46ACE8C009ACE8C009ACE8C009ACE830
:10033000C00921F007018D46704710B50446AFF3A0
:1003400000802046BDE81040FFF76FBF014918202C
:10035000ABBEFEE726000200704700000421C4F295
:100360000101086840F48070086040F20831C5F26D
:100370000401086840F480000860086820F47010E8
:100380000860086820F440300860086840F4803055
:100390000860086820F01F000860704780B582B0D0
:1003A00041F24C01C4F20201086840F400500860B8
:1003B00041F22C01C4F20201086840F400500860C8
:1003C000086820F40050086000F052F8FFF7C6FFFC
:1003D00000F06CF80821C5F20401086820F0010063
:1003E00008600C22C5F204020192106820F0180087
:1003F0001060106820F0200010603023C5F2040364
:10040000186820F00F001860186820F4F860186071
:10041000186840F4C0701860B023C5F2040318686F
:1004200020F0400018601423C5F20403186820F47B
:10043000E0101860186840F440201860106820F43C
:1004400000501060106820F440601060086840F0B0
:1004500001000860FFE70020C5F20400006800F01A
:100460000100012801D0FFE7F5E702B080BD0000E0
:1004700041F24C01C4F20201086840F0010008603A
:100480004FF09041086840F00C0008600C21C4F661
:100490000001086820F00C0008602C21C4F600015F
:1004A000086840F0020008607047000081B0082032
:1004B000C5F2040000688000002808D5FFE7082185
:1004C000C5F20401086820F000500860FFE7082129
:1004D000C5F20401086840F0805008604FF4C8601D
:1004E0000090FFE7009820B1FFE7009801380090E6
:1004F000F8E701B0704700004FF09041086820F421
:1005000080600860086840F4006008600421C4F658
:100510000001086820F0200008600C21C4F60001EA
:10052000086820F4406008600821C4F600010868EB
:1005300040F4406008602021C4F60001086820F4FF
:1005400070000860086840F4801008607047000080
:1005500041F20001C4F20201086840F001000860A5
:10056000FFE741F20000C4F20200006880070028A3
:1005700001D4FFE7F5E741F20001C4F20201086887
:1005800040F008000860086820F0F0000860086883
:1005900040F07000086041F20801C4F202010868EE
:1005A00020F00300086008680860FFE741F20800D7
:1005B000C4F20200006810F00C0F01D0FFE7F5E76D
:1005C000704700004FF08041086820F0010008608B
:1005D00041F25802C4F20202106840F001001060BB
:1005E000086820F010000860086820F060000860CB
:1005F0002822C4F20002072010602C22C4F200025C
:10060000632010601822C4F2000210684FF68F7346
:10061000CFF6FE7318401060106840F06000106064
:10062000106840F0080010602022C4F20002106838
:1006300020F002001060106840F0010010603422C9
:10064000C4F2000200201060086840F00100086059
:10065000704700000000000080B584B000200190C9
:100660000390FFF775FFFFF799FEFFF745FFFFF7D0
:10067000A9FF01980290FFE70821C5F2040108686C
:1006800040F004000860FFE740F20030C5F20400CB
:10069000006800F00400042801D0FFE7F4E74020E0
:1006A000C5F20400016840F26000C2F2000001607F
:1006B0000022C5F20402116821F0040111600068F3
:1006C00064214843000B0290029800F031FD41EC98
:1006D000100B9FED0F1B53EC112B51EC100B00F086
:1006E00077FD41EC100B00F033F851EC100B9FED4F
:1006F0000A0B53EC102B00F097FA41EC100B51EC65
:10070000100B00F0D1FC3421C4F200010860B3E703
:100710008CB96B09F9A0A73F000000000000F0BFF2
:1007200003B401984100009850EAC12018BF04208A
:100730004A0D18BF40F0010040F2FF72B2EB515F6A
:1007400008BF40F00200012808BF052002B0704732
:1007500070B52DED020B2DED0A8B82B00D98C40FF4
:1007600020F00045AE48854248D3AE48854219D3B3
:100770000C99C5F31300084309D09DED0C0B02B092
:1007800000F092B902B0BDE8704000F021BA002C30
:1007900014BF9FEDA50B9DED0C0B02B000F08AB9C4
:1007A00002B070BD9FEDA20B53EC102B9DED0C0B16
:1007B00051EC100B00F00AFE0AD20220FFF78AFD6E
:1007C00002B000F07DB902B0BDE8704000F00CBA94
:1007D0009FED990B53EC102B9DED0C0B51EC100B76
:1007E00000F0BAFC0AD20220FFF774FD02B000F05C
:1007F0006DB902B0BDE8704000F006BA90489FEDB8
:1008000092BBA8425CD29248854219D29148784462
:1008100000EBC40090ED000B53EC102B9DED0C0B86
:1008200051EC100B00F014FE41EC1A0B8A4878448E
:1008300000EBC40090ED009BC4F10100041B36E006
:100840009FED870B53EC102B9DED0C0B51EC100B17
:1008500000F0BEFC41EC100B8348784400EBC40070
:1008600090ED001B51EC100B53EC112B00F0DCF958
:1008700000F0EAFB044600F044FC41EC180B9FED4D
:100880007C0B53EC102B00F0A3FC9DED0C1B53ECE8
:10089000112B00F0D1FD41EC1A0B9FED770B51ECC1
:1008A000180B53EC102B00F093FC41EC190B51EC9E
:1008B0001A0B53EC192B00F0CBFDCDE90C011BE01A
:1008C0006F48854217D29FED700B53EC102B9DEDB6
:1008D0000C0B51EC100B00F0A7F953EC1B2B00F0A4
:1008E00075FD08D29DED0C0B53EC1B2B51EC100B3E
:1008F00000F09AF96EE000249DED0C0B53EC102BE8
:1009000051EC100B00F064FC41EC180B6048052121
:10091000B0EE480AF0EE680A784400F0DDF853ECD7
:10092000182B51EC100B00F053FC9DED0C1B53ECFD
:10093000112B00F081FD41EC180B9FED570B5CB3C0
:1009400053EC182B51EC100B00F082FD9DED0C0BBD
:1009500041EC1C0B53EC182B51EC100B00F038FC45
:1009600053EC1C2B00F014FA53EC192B00F064FD2F
:1009700053EC1A2B00F06CFD53EC1B2B00F05CFDCC
:10098000CDE900016FF47F70844226DB01EB045057
:1009900001909DED000B00E753EC102B51EC180B70
:1009A00000F056FD9DED0C0B41EC190B53EC182B90
:1009B00051EC100B00F00CFC53EC192B00F0E8F993
:1009C0009DED0C1B53EC112B00F042FD53EC1B2B47
:1009D00000F032FD41EC100BDFE608464FF07A5193
:1009E00001EB04519FED2E0B084453EC102B0190AA
:1009F0009DED000B51EC100B00F0EAFB0D4645ECB1
:100A0000100B044651EC100BFFF78AFE042808BFB8
:100A100000F0FAF845EC104BBFE6000000000000C3
:100A2000422E86400000F07F000000000000000021
:100A3000EF39FAFE422E864051302DD5104987C03D
:100A4000422ED63F00000000000000000000F03FF2
:100A5000B2A2F03F460E0000360E0000000000007B
:100A6000FE822B654715F73FEA0D000000000000ED
:100A70000000E0FE422EE63F763C7935EF39EA3D54
:100A80000000303E000000009C7500883CE4377E8A
:100A90005C0D0000000000000000000000000040AD
:100AA0000000000000007001BDEC088BBDEC02CB23
:100AB000FFF768BEBDEC088BBDEC02CBFFF770BE44
:100AC000BDEC088BBDEC02CBFFF77DBEBDEC088B07
:100AD000BDEC02CBFFF78DBE70B504462DED028B49
:100AE0004D1E00EBC500B0EE408AF0EE608A90ED3E
:100AF000000B35F0060017D053EC182B51EC100BFF
:100B000000F066FB41EC100B6D1E04EBC50090ED90
:100B1000001B51EC100B53EC112B00F085F841EC4D
:100B2000100B35F00600E7D1022D36D0042D1CD075
:100B3000062D1CBFBDEC028B70BD53EC182B51EC85
:100B4000100B00F045FB94ED0A1B53EC112B00F049
:100B50006BF853EC182B00F03BFB94ED081B53ECA7
:100B6000112B00F061F841EC100B53EC182B51ECF9
:100B7000100B00F02DFB94ED061B53EC112B00F035
:100B800053F853EC182B00F023FB94ED040B53ECBB
:100B9000102B00F049F841EC100B53EC182B51ECE2
:100BA000100B00F015FB94ED021B53EC112B00F021
:100BB0003BF853EC182B00F00BFB94ED001B53ECAF
:100BC000112B00F031F8BDEC028B41EC100B70BD25
:100BD00010B553EC102B51EC100B00F025F841EC44
:100BE000100B10BD000000009FED050B10B553EC7D
:100BF000102B51EC100B00F0EBFA41EC100B10BD78
:100C000000000000000000709FED050B10B553ECD4
:100C1000102B51EC100B00F0DBFA41EC100B10BD67
:100C2000000000000000001010B591EA030F48BF5B
:100C300083F0004300F11484841A71EB030C05D295
:100C4000121943EB0C03001B61EB0C014FEA11542A
:100C5000A4EB135CDFF81CE11EEA430F18BF9EEA09
:100C6000445F00F0748021EA045123EA0E0343F448
:100C70008013DCF1200E32D322FA0CFE10EB0E00B2
:100C800023FA0CFE41EB0E01CCF1200E03FA0EFE0E
:100C900010EB0E00CCF1200E51F10001B1F5801FD8
:100CA00032D201EB045112FA0EF2BDE8104058BFE7
:100CB0007047401C38BF5FEA420218BF70470028E7
:100CC00014BF20F0010041F100014FEA410313F588
:100CD000001F38BF7047A1F1C04100F071BB012A6D
:100CE00043EB0302ACF1200CDCF11F0E32BF4FF0DE
:100CF000000E23FA0CF310EB030041EB0451B4EBAC
:100D0000115FD0D0A1EB045101F58011490801EB2E
:100D100004515FEA30000ED350F1000038BF12FAE0
:100D20000EFE08D1BDE81040C9E7401C38BF5FEA9D
:100D30004202CAD1C3E7BDE810404FEA410313F5B0
:100D4000001F38BF7047A1F1C04100F039BB9EEAD7
:100D5000445F08D011EA5E0FBDE8104004BF01F007
:100D6000004100207047BDE8104070B500F0DAFA8D
:100D700064FBBE3E0000E0FF491058BFC1F1404196
:100D80005B1058BFC3F140438B42EFF300807047C4
:100D90002DE9C04130B4DFF8A8C23CEA111418BFF5
:100DA0003CEA131400F0F0801CEA111481EA0305F8
:100DB00044EAD57418BF1CEA131500F0CB80A4EBED
:100DC000050404F17F7404F500344FF0004545EA52
:100DD000C12145EAC32341EA505143EA52534FEA45
:100DE000C0204FEAC222994208BF904200F0A08082
:100DF0004FEA13650FF24816765D4FEA134506FB7E
:100E000005F7C7F1807706FB07F74FEAD737A7FB4F
:100E100003687642A7FB06CEC8F5803838BFA8F134
:100E2000010807FB08E6A6FB028C4FF0000EE6FB6C
:100E300003CED8F100086FEA0C0C5CF1000C6FEAED
:100E40000E0E4EF1004EA6FB0C584FF00007E6FBCD
:100E50000E87A1FB08C6A0FB07CE16EB0E064FF0CF
:100E6000000545F10005E1FB076515F1E04E7EBF89
:100E7000A4F580345FEA46066D4116F1800745F11E
:100E800000054FEA172747EA05674FEA15254FEA9D
:100E90000666A6F1DE46B6F1805F20D9384605EB3E
:100EA000C47124F0010C01EB0C11BCF1FE6F02D8EF
:100EB000F0BCBDE8008124425CBF01F5801E9EEAC3
:100EC000C47F02D4F0BCBDE80081244200F1398027
:100ED000A1F1C041F0BCBDE8004100F071BA4FEA99
:100EE000D02040EA41504FEAD1214FEAD22242EAD3
:100EF00043524FEAD323A7FB028607FB036605FB99
:100F000002661EEA0E0F58BFA6EB0056B6EB00565F
:100F10004FEA520E4EEAC37E18EB0E0E56EB530EFE
:100F2000BCD518EB02085E417F1C55F10005B5E702
:100F30004FF480154FF000074FF000064FF0000807
:100F4000ACE701F1C04101F000414FF00000F0BCFE
:100F5000BDE800810CEA131511EA0C1F00D00CE06B
:100F600013EA0C1F00F025804FF0000081EA030116
:100F700001F00041F0BCBDE80081F0BCBDE80041DB
:100F800081EA030100F01CBAF0BCBDE8004170B575
:100F900000F0C8F9097EFC3E00F007B84FF00000F1
:100FA00081EA030101F00041704781EA030100F08A
:100FB00007BAF0BCBDE8004122494FF0000070477D
:100FC000FFFDFBF9F7F5F4F2F0EEEDEBE9E8E6E40E
:100FD000E3E1E0DEDDDBDAD8D7D5D4D3D1D0CFCD95
:100FE000CCCBCAC8C7C6C5C4C2C1C0BFBEBDBCBBCE
:100FF000BAB9B8B7B6B5B4B3B2B1B0AFAEADACABC9
:10100000AAA9A8A8A7A6A5A4A3A3A2A1A09F9F9EA2
:101010009D9C9C9B9A999998979796959594939354
:10102000929191908F8F8E8E8D8C8C8B8B8A8989EB
:10103000888887878685858484838382828181806E
:101040000000FF070000F87F4FEA41034FEA5353C7
:10105000A3F58063D3F11E03C8BFD3F1210C0CDDCF
:101060004FF0004242EAC12242EA505232FA03FCF7
:101070008CEAE17CACEBE1707047102BC4BF002020
:10108000704703F5787CBCF1FF3F04D06FF000425D
:1010900082EA2100704770B500F044F9499224803B
:1010A00000207047F2E700004FEA1153A3F5806378
:1010B000D3F11E03A8BFD3F1200C08DB4FF0004290
:1010C00042EAC12252EA505232FA03F07047094212
:1010D0000BD4102BC4BF0020704703F5787CBCF103
:1010E000FF3F05D04FF0FF3070474FF000007047D2
:1010F00070B500F017F900BF4992248000207047B6
:10110000F0E710F0004248BF4042B0FA80F310FA16
:1011100003F10AD0C3F11D0303F5806302EB035210
:101120004FEA415002EBD12170474FF00000704769
:10113000B0FA80F310FA03F10AD0C3F11D0303F5EE
:1011400080634FEA03524FEA415002EBD1217047CE
:101150004FF000007047000051EA030C17D41CF553
:10116000801F58BFBCF5801F00F10680994218BF50
:10117000704708BF9042704707D711F5801F58BFCE
:1011800013F5801F19D499427047894270471CF5A6
:10119000801F08D5BCF5801FF7D58B4218BF70475C
:1011A00008BF824270474FF4001C1CEB410F38BF50
:1011B0001CEB430F01D28B42704770B500F0B2F8C0
:1011C000922449004FF000514FF08053FFF7D4BDF7
:1011D00070B5DFF848C11CEA111E1EBF1CEA1315CA
:1011E0009EEA0C0F95EA0C0F00F06F8081EA030471
:1011F0004EEAD47EAE4421EA4C1123EA4C1341F46A
:10120000801143F48013AEF17F7EA1FB024CA0FB62
:101210000365361955EB0C05A1FB034C4CF100039B
:10122000A0FB021C16EB0C06654153F100030942BA
:1012300018BF46F0010613F4007F0BD14FEA0331CB
:101240004FEA053041EA155140EA165034036FF079
:1012500003020AE04FEAC3214FEAC52041EA555193
:1012600040EA5650F4026FF0020202EB2E4201EB0C
:10127000025585EACE710AD05FEA440C18BF24F00B
:10128000004450F1000041F1000120EAD47040F226
:10129000FE7C624500D270BDA84214BF4FF080446E
:1012A0004FF04044002E08BF0024BEF1806FA8BF5D
:1012B000A1F1C041BDE8704080F2828001F1C041DF
:1012C00001F000414FF0000070470CEA13159EEA50
:1012D0000C0F18BF95EA0C0F06D081EA030E4FF0F1
:1012E00000000EF0004170BD00F01CF88900013EC6
:1012F00000F007B800F009B84FEA430C5FEA5C5C05
:1013000008D081EA030100F05BB84FEA410C5FEAC4
:101310005C5CF6D102494FF0000070470000FF0707
:101320000000F87F0EF1020E2EF0030E5EF8046B43
:10133000364205D4012A43EB030515F5001F12D8E8
:10134000012841EB010C1CF5001F0CD80ED14FEA0F
:10135000D17C0CEB4C0C0CF1020C15F5001F08BFF6
:101360004CEBD37C04E04FF0080C01E04FEAD37C57
:101370000CEB4C0526FA05F606F00706B6F1040C50
:1013800006D20EEB860CBDE870404CF0010C6047B5
:10139000DFE80CF0090B02024FF00041A1F500213B
:1013A0004FF0000070BD19461046012851EB0104B2
:1013B00018BFD4F5001484BF002001F0004170BDB7
:1013C0000808A0F500114FEA3101704753EA010CFB
:1013D00017D41CF5801F58BFBCF5801F00F1068094
:1013E0008B4218BF704708BF8242704707D713F57A
:1013F000801F58BF11F5801F19D48B4270479B4244
:1014000070471CF5801F08D5BCF5801FF7D59942A1
:1014100018BF704708BF904270474FF4001C1CEB88
:10142000430F38BF1CEB410F01D2994270470FB4F4
:101430000CBC03BCFFF7C1BE10B591EA030F81F0ED
:1014400000413FF5F9AB83F0004300F009B800001C
:1014500010B591EA030F48BF83F000433FF5ECABB2
:10146000841A71EB030C07D28CF0004C121943EB79
:101470000C03001B61EB0C014FEA1154A4EB135C4D
:10148000DFF8A4E11EEA430F18BF9EEA445F00F0B4
:10149000B48021EA045123EA6E035242C3EB6E0387
:1014A00038BF5B1EDCF1200E25D322FA0CFE10EBB8
:1014B0000E0043FA0CFE41EB0E01CCF1200E03FAB4
:1014C0000EFE10EB0E00CCF1200E51F1000129D4DC
:1014D00001EB045112FA0EF2BDE8104058BF7047FC
:1014E000401C1CBFB2F1004F704700280CBF491CC4
:1014F00020F00100704712EB020E43EB030218BF0D
:101500004FF0010E4EEA4202ACF1200CDCF11E0E4F
:1015100056D943FA0CFE10EB0E00CCF11E0E51F121
:10152000FF31D5D50EF1010E12FA0EFE404141EB0E
:10153000010101EB445C5FEA5C5C10D901EB0451F2
:1015400010EBDE7038BFBEF1004FBDE8104018BF91
:10155000704700280CBF491C20F00100704734D2AE
:101560004FEAD42C24F4006411F500111BD0B1FA19
:1015700081F20B3AA41AA41ED2F12003914030FA52
:1015800003F31943904001EBCC7101EB0451002CA3
:10159000BDE81040A8BF704701F1C04101F0004113
:1015A0004FF000007047B0FA80F310FA03F102D157
:1015B000BDE810407047E41A173C4805C90AE2E745
:1015C00001EB0451BDE81040704749104FEA30006C
:1015D00001EB0451BDE8104002E04FF000017047FC
:1015E0004A0008BF0042F8D0B2F5001F28BF70477C
:1015F00001F000414FF0000070479EEA445F07D0C1
:1016000011EA5E0FBDE8104004BF002100207047C2
:10161000BDE8104070B5FFF785FE00BF40DFF63E25
:10162000104683F0004170470000E0FFF1EE100A21
:101630004FF6FF71C0F2C03120EA010040F0407067
:10164000E1EE100A70470000000000000000E03FDB
:10165000000000000000E0BF0000E0FE422EE63F78
:101660000000E0FE422EE6BF763C7935EF39EA3DD8
:10167000763C7935EF39EABD3E5555555555C53F50
:1016800093BDBE166CC166BF2CDE25AF6A56113FF6
:10169000F16BD2C541BDBBBED0A4BE726937663EF8
:1016A000B01600080000002068060000F0010008E5
:040000050800018965
:00000001FF
